S01A00004C69676874656E696E675F50726F6A6563742E73726563CB
S11300000C942A000C9447000C9447000C9447006D
S11300100C9447000C9447000C944C060C94FA057D
S11300200C9423060C94D1050C9447000C944700BF
S11300300C9447000C9447000C9447000C94470020
S11300400C9447000C9447000C9447000C94470010
S11300500C94470011241FBECFE5D8E0DEBFCDBF0E
S113006011E0A0E6B0E0E6E8F0E102C005900D92F0
S1130070AA33B107D9F721E0AAE3B1E001C01D9288
S1130080A236B207E1F70E9475060C9441080C945D
S113009000001F93CF93DF9310E038C060E070E05E
S11300A0CE010E94BE0280E790E00E94AB02612F65
S11300B070E080E090E00E94E402FE01E65CFE4F06
S11300C08081811105C085E790E00E94AB021DC0CC
S11300D0FE01E65CFE4F80818130B9F4C25ADE4FE6
S11300E08881811105C087E890E00E94AB020DC0B1
S11300F0813029F48FE890E00E94AB0206C0823080
S113010021F48DE990E00E94AB021F5FC12FD0E083
S1130110FE01EC59FF4F80818C3108F4BFCFDF9191
S1130120CF911F9108950E94DA0265E070E081E0AA
S113013090E00E94BE028BEA90E00E94AB022FEF97
S11301408EE994E2215080409040E1F700C0000025
S11301500E94DA0265E070E080E090E00E94BE0256
S113016086EB90E00E94AB0269E070E081E090E0F1
S11301700E94BE0282EC90E00E94AB0265E070E057
S113018082E090E00E94BE0284EC90E00E94AB0208
S113019066E070E083E090E00E94BE028FEC90E0A5
S11301A00E94AB022FEF8EE994E2215080409040F0
S11301B0E1F700C000000E94DA020895623D744035
S11301C081059105C1F40E94DA0260E070E081E0EB
S11301D090E00E94BE0287ED90E00E94AB028FEF98
S11301E09EE924E2815090402040E1F700C00000E5
S11301F00E94930008950E94DA0260E070E081E0BA
S113020090E00E94BE028AEE90E00E94AB02089544
S1130210CF92DF92EF92FF92CF93DF9360E070E092
S113022080E090E00E94BE028BEF90E00E94AB025F
S113023066E070E081E090E00E94BE02C12CD12C07
S11302407601C0E0D0E031C00E948D01EC018A3219
S1130250910541F4C701B6010E94DE0060E070E040
S1130260CB0125C08435910501F18A97F1F0D701BE
S1130270C601880F991FAA1FBB1F6C017D01CC0CFE
S1130280DD1CEE1CFF1CCC0CDD1CEE1CFF1C8C0DBD
S11302909D1DAE1DBF1D6C017D01CC0EDD1EE11C3C
S11302A0F11C8AE290E00E94A802AA9769F6DF9105
S11302B0CF91FF90EF90DF90CF9008950F931F930D
S11302C0CF93C0E00DC00E94D704811108C0F8018B
S11302D0E65CFE4F81E080838C2F0E943407CF5F61
S11302E00C2F10E0F801EC59FF4F80818C3158F34A
S11302F0CF911F910F91089561E08CE00E94520408
S113030061E08DE00E94520461E08EE00E9452049C
S113031061E08FE00E9452040895FF920F931F93AF
S1130320CF93DF930F2EF4E5FF2EF02D10E028C0BD
S11303300CE0010F60E0802F0E945204D0E019C04D
S1130340C8E0CD0F8C2F0E94D704811111C08D2FCE
S113035090E0FC01EE0FFF1FE80FF91FE35FFE4F73
S1130360E10FF11DF0808C2F0E94D7048823D9F36C
S1130370DF5FD43028F361E0802F0E9452041F5FB6
S11303801330B0F28F2DDF91CF911F910F91FF9019
S11303900895CF93C82F60E081E10E9452046C2F2E
S11303A0661F6627661F86E10E945204C6FB662705
S11303B060F985E10E945204C5FB662760F984E177
S11303C00E945204C4FB662760F983E10E94520430
S11303D061E082E10E9452048FEC97E00197F1F70B
S11303E000C0000060E082E10E9452048FEC97E0BC
S11303F00197F1F700C00000C3FB662760F986E1AE
S11304000E945204C2FB662760F985E10E945204EF
S1130410C1FB662760F984E10E9452046C2F61706D
S113042083E10E94520461E082E10E9452048FEC55
S113043097E00197F1F700C0000060E082E10E94BC
S113044052048FEC97E00197F1F700C00000CF91C0
S11304500895CF93C82F61E081E10E9452046C2F6C
S1130460661F6627661F86E10E945204C6FB662744
S113047060F985E10E945204C5FB662760F984E1B6
S11304800E945204C4FB662760F983E10E9452046F
S113049061E082E10E9452048FEC97E00197F1F74A
S11304A000C0000060E082E10E9452048FEC97E0FB
S11304B00197F1F700C00000C3FB662760F986E1ED
S11304C00E945204C2FB662760F985E10E9452042F
S11304D0C1FB662760F984E10E9452046C2F6170AD
S11304E083E10E94520461E082E10E9452048FEC95
S11304F097E00197F1F700C0000060E082E10E94FC
S113050052048FEC97E00197F1F700C00000CF91FF
S113051008952FE788E391E0215080409040E1F76F
S113052000C0000082E00E94C90188E20E94C90163
S11305308CE00E94C90181E00E94C9018FEC97E020
S11305400197F1F700C0000086E00E94C9010895F8
S11305500E94290208950F931F93CF938C01C0E04A
S113056003C00E94A802CF5FF801EC0FF11D808147
S11305708111F7CFCF911F910F910895811105C07B
S1130580862F80680E94C9010895813029F480EC87
S1130590860F0E94C9010895823029F484E9860FE8
S11305A00E94C9010895833021F484ED860F0E94CE
S11305B0C901089581E00E94C9018FEC97E0019779
S11305C0F1F700C000000895CF92DF92EF92FF92FE
S11305D01F93CF93DF93CDB7DEB72A970FB6F89466
S11305E0DEBF0FBECDBF6B017C01611571058105B6
S11305F0910521F480E30E94A80239C099235CF498
S1130600F094E094D094C094C11CD11CE11CF11C62
S11306108DE20E94A80210E015C0C701B6012AE0CD
S113062030E040E050E00E940008E1E0F0E0EC0F30
S1130630FD1FE10FF11D605D60831F5FC22ED32E8D
S1130640E42EF52EC114D104E104F10431F70DC0F8
S1130650E12FF0E0319781E090E08C0F9D1FE80FCF
S1130660F91F80810E94A80211501111F1CF2A961E
S11306700FB6F894DEBF0FBECDBFDF91CF911F91AF
S1130680FF90EF90DF90CF900895982F96959695D0
S113069096958770613009F455C020F0623009F4F2
S11306A0A1C008959130C1F028F0923039F193300F
S11306B0B9F108954AB321E030E0B90102C0660FF0
S11306C0771F8A95E2F7CB01942F982B9ABB9BB3A3
S11306D0809589238BBB089547B321E030E0B901AD
S11306E002C0660F771F8A95E2F7CB01942F982BEF
S11306F097BB98B38095892388BB089544B321E0C0
S113070030E0B90102C0660F771F8A95E2F7CB018A
S1130710942F982B94BB95B38095892385BB08951A
S113072041B321E030E0B90102C0660F771F8A951A
S1130730E2F7CB01942F982B91BB92B38095892338
S113074082BB08959130C1F028F0923039F1933092
S1130750B9F108954AB321E030E0B90102C0660F4F
S1130760771F8A95E2F7CB018095942F98239ABB43
S11307709BB389238BBB089547B321E030E0B901D3
S113078002C0660F771F8A95E2F7CB018095942FFC
S1130790982397BB98B3892388BB089544B321E079
S11307A030E0B90102C0660F771F8A95E2F7CB01EA
S11307B08095942F982394BB95B3892385BB089582
S11307C041B321E030E0B90102C0660F771F8A957A
S11307D0E2F7CB018095942F982391BB92B38923A0
S11307E082BB08959130C1F028F0923039F19330F2
S11307F0B9F108954AB321E030E0B90102C0660FAF
S1130800771F8A95E2F7CB01962F909594239ABB94
S11308109BB3892B8BBB089547B321E030E0B9012A
S113082002C0660F771F8A95E2F7CB01962F909549
S1130830942397BB98B3892B88BB089544B321E0D4
S113084030E0B90102C0660F771F8A95E2F7CB0149
S1130850962F9095942394BB95B3892B85BB0895CB
S113086041B321E030E0B90102C0660F771F8A95D9
S1130870E2F7CB01962F9095942391BB92B3892BE9
S113088082BB0895CF93C0E009C0EC2FF0E0E75E8F
S1130890FE4F60818C2F0E944503CF5FC032A8F3C6
S11308A0CF910895982F9695969596958770613077
S11308B0E1F5913099F028F09230E9F0933041F16C
S11308C008954BB321E030E0B90102C0660F771FF1
S11308D08A95E2F7CB01842B8BBB089548B321E0C2
S11308E030E0B90102C0660F771F8A95E2F7CB01A9
S11308F0842B88BB089545B321E030E0B90102C0E0
S1130900660F771F8A95E2F7CB01842B85BB089588
S113091042B321E030E0B90102C0660F771F8A9527
S1130920E2F7CB01842B82BB089561113FC0913063
S1130930A1F028F09230F9F0933059F108954BB3B7
S113094021E030E0B90102C0660F771F8A95E2F713
S1130950CB01809584238BBB089548B321E030E01C
S1130960B90102C0660F771F8A95E2F7CB01809523
S1130970842388BB089545B321E030E0B90102C067
S1130980660F771F8A95E2F7CB018095842385BB98
S1130990089542B321E030E0B90102C0660F771F29
S11309A08A95E2F7CB018095842382BB0895982F22
S11309B0969596959695482F4770913081F028F03A
S11309C09230B9F09330F9F028C099B3892F90E0B0
S11309D002C0959587954A95E2F78170089526B3EC
S11309E030E0C90102C0959587954A95E2F7817078
S11309F0089523B330E0C90102C0959587954A95BF
S1130A00E2F78170089520B330E0C90102C09595E2
S1130A1087954A95E2F78170089580E00895982FAC
S1130A209695969596958770913099F028F0923026
S1130A30E9F0933041F108954BB321E030E0B9017E
S1130A4002C0660F771F8A95E2F7CB0184278BBB20
S1130A50089548B321E030E0B90102C0660F771F62
S1130A608A95E2F7CB01842788BB089545B321E03A
S1130A7030E0B90102C0660F771F8A95E2F7CB0117
S1130A80842785BB089542B321E030E0B90102C058
S1130A90660F771F8A95E2F7CB01842782BB0895FE
S1130AA0823029F128F4882341F0813099F045C03F
S1130AB0833051F18430A9F140C08FB58E7F8FBD52
S1130AC08FB58D7F8FBD8EB5877F8EBD8EB58F7EA2
S1130AD08EBD33C08FB58E7F8FBD8FB58D7F8FBD9B
S1130AE08EB588608EBD8EB580618EBD26C08FB5F3
S1130AF08E7F8FBD8FB58D7F8FBD8EB588608EBD87
S1130B008EB58F7E8EBD19C08FB58E7F8FBD8FB58C
S1130B1082608FBD8EB588608EBD8EB580618EBDBE
S1130B200CC08FB581608FBD8FB582608FBD8EB5CF
S1130B3088608EBD8EB580618EBD8EB5887F8EBD7A
S1130B408EB5682B6EBD0895813069F028F082302F
S1130B5089F08330B1F008958FB58F7B8FBD8FB549
S1130B608F778FBD08958FB580648FBD8FB58F77D4
S1130B708FBD08958FB58F7B8FBD8FB580688FBD76
S1130B8008958FB580648FBD8FB580688FBD08953B
S1130B9089B7806189BF089590934301809342018E
S1130BA008951F920F920FB60F9211242F933F9323
S1130BB04F935F936F937F938F939F93AF93BF9361
S1130BC0EF93FF93E0914401F0914501309709F0D0
S1130BD00995FF91EF91BF91AF919F918F917F9173
S1130BE06F915F914F913F912F910F900FBE0F9096
S1130BF01F9018951F920F920FB60F9211242F93E6
S1130C003F934F935F936F937F938F939F93AF9390
S1130C10BF93EF93FF93E0914201F091430130972A
S1130C2009F00995FF91EF91BF91AF919F918F9139
S1130C307F916F915F914F913F912F910F900FBED4
S1130C400F901F9018951F920F920FB60F921124B8
S1130C502F933F934F935F936F937F938F939F93C0
S1130C60AF93BF93EF93FF93E0914001F091410163
S1130C70309709F00995FF91EF91BF91AF919F9142
S1130C808F917F916F915F914F913F912F910F9031
S1130C900FBE0F901F9018951F920F920FB60F92D0
S1130CA011242F933F934F935F936F937F938F936D
S1130CB09F93AF93BF93EF93FF93E0913E01F09125
S1130CC03F01309709F00995FF91EF91BF91AF91E2
S1130CD09F918F917F916F915F914F913F912F9150
S1130CE00F900FBE0F901F9018950E9442040E940F
S1130CF089020E947C0162E082E00E94500580E04B
S1130D000E94A4050E94C8058DEA97E00E94CC05C4
S1130D1080E593EC9BBD8ABD78940E9408010E94F3
S1130D205E010E944900FBCF88E10E94D70488231A
S1130D30D9F380914D01811108C061E08CE10E94DA
S1130D40520481E080934D01089580914C018130DB
S1130D5079F460E08CE10E94520410924C011092EC
S1130D604D0110925E0110925A0110923A010895B9
S1130D708F5F80934C01089589E10E94D7048823F2
S1130D80D9F380914B01811108C061E08DE10E948B
S1130D90520481E080934B01089580914A0181308F
S1130DA079F460E08DE10E94520410924A0110929D
S1130DB04B0110925F0110925B0110923B01089568
S1130DC08F5F80934A0108958AE10E94D7048823A3
S1130DD0D9F380914901811108C061E08EE10E943C
S1130DE0520481E080934901089580914801813043
S1130DF079F460E08EE10E9452041092480110924E
S1130E0049011092600110925C0110923C01089516
S1130E108F5F8093480108958BE10E94D704882353
S1130E20D9F380914701811108C061E08FE10E94EC
S1130E30520481E0809347010895809146018130F6
S1130E4079F460E08FE10E945204109246011092FE
S1130E5047011092610110925D0110923D010895C5
S1130E608F5F809346010895E82FF0E0EE0FFF1F97
S1130E70E859FF4F0190F081E02D099508951F93E3
S1130E80CF93DF9310E028C00E94D704811106C0DD
S1130E90C65ADE4F88818F5F88831DC0FE01EC59DE
S1130EA0FF4F80810E94D7048823A9F0FE01E65AEF
S1130EB0FE4F80818823C1F09FEF980F923028F471
S1130EC0C25ADE4F81E0888306C0833020F0C25AC4
S1130ED0DE4F82E088831F5FC12FD0E0FE01EC5912
S1130EE0FF4F80818C3180F2DF91CF911F91089563
S1130EF01F93CF93DF9310E024C0FE01E25AFE4F0C
S1130F008081823031F4C05ADF4F88810E940F05FE
S1130F1017C08130A9F4FE01E25BFE4F808182306C
S1130F2051F4FE01E05AFF4F80810E940F05FE013B
S1130F30E25BFE4F1082C25BDE4F88818F5F888345
S1130F401F5FC12FD0E0FE01EC59FF4F80818C312F
S1130F50A0F2DF91CF911F91089580915601909155
S1130F605701A0915801B09159014497A105B105C9
S1130F7051F4109256011092570110925801109298
S1130F8059010E943F078091560190915701A09109
S1130F905801B09159010196A11DB11D80935601CC
S1130FA090935701A0935801B09359018091520135
S1130FB090915301A0915401B09155010597A10559
S1130FC0B10551F410925201109253011092540140
S1130FD0109255010E94780780915201909153011B
S1130FE0A0915401B09155010196A11DB11D8093AA
S1130FF0520190935301A0935401B0935501089565
S1131000052E97FB1EF400940E94170857FD07D085
S11310100E941F0807FC03D04EF40C941708509547
S11310204095309521953F4F4F4F5F4F08959095D0
S11310308095709561957F4F8F4F9F4F0895A1E2E2
S11310401A2EAA1BBB1BFD010DC0AA1FBB1FEE1F3E
S1131050FF1FA217B307E407F50720F0A21BB30B89
S1131060E40BF50B661F771F881F991F1A9469F705
S113107060957095809590959B01AC01BD01CF0161
S10910800895F894FFCF6F
S11310861C1D1E1F18191A1B9406BC06E4060C0721
S11310964C45442000203A204F464620202020205C
S11310A620202020202000203A204F4E20200020FF
S11310B63A20466C61736820536C6F7700203A209F
S11310C6466C61736820466173740057454C434F00
S11310D64D4520544F006C69676874656E696E6788
S11310E6200026005669736962696C697479005038
S11310F6726F6A65637400202050415353574F52F0
S11311064420434F525245435400202057524F4ED9
S1131116472050415353574F524400202020454EF8
S113112654455220504153534F5752440001020331
S11311360405060708092A0023010000000101002E
S1131146000202020200000000000000000000008D
S10D11560002020202000000000083
S9030000FC
